{"abi":[{"type":"constructor","inputs":[],"stateMutability":"nonpayable"},{"type":"function","name":"PRICE","inputs":[],"outputs":[{"name":"","type":"uint256","internalType":"uint256"}],"stateMutability":"view"},{"type":"function","name":"approve","inputs":[{"name":"to","type":"address","internalType":"address"},{"name":"tokenId","type":"uint256","internalType":"uint256"}],"outputs":[],"stateMutability":"nonpayable"},{"type":"function","name":"balanceOf","inputs":[{"name":"owner","type":"address","internalType":"address"}],"outputs":[{"name":"","type":"uint256","internalType":"uint256"}],"stateMutability":"view"},{"type":"function","name":"getApproved","inputs":[{"name":"tokenId","type":"uint256","internalType":"uint256"}],"outputs":[{"name":"","type":"address","internalType":"address"}],"stateMutability":"view"},{"type":"function","name":"isApprovedForAll","inputs":[{"name":"owner","type":"address","internalType":"address"},{"name":"operator","type":"address","internalType":"address"}],"outputs":[{"name":"","type":"bool","internalType":"bool"}],"stateMutability":"view"},{"type":"function","name":"name","inputs":[],"outputs":[{"name":"","type":"string","internalType":"string"}],"stateMutability":"view"},{"type":"function","name":"ownerOf","inputs":[{"name":"tokenId","type":"uint256","internalType":"uint256"}],"outputs":[{"name":"","type":"address","internalType":"address"}],"stateMutability":"view"},{"type":"function","name":"safeMint","inputs":[{"name":"to","type":"address","internalType":"address"},{"name":"svgData","type":"string","internalType":"string"}],"outputs":[],"stateMutability":"payable"},{"type":"function","name":"safeTransferFrom","inputs":[{"name":"from","type":"address","internalType":"address"},{"name":"to","type":"address","internalType":"address"},{"name":"tokenId","type":"uint256","internalType":"uint256"}],"outputs":[],"stateMutability":"nonpayable"},{"type":"function","name":"safeTransferFrom","inputs":[{"name":"from","type":"address","internalType":"address"},{"name":"to","type":"address","internalType":"address"},{"name":"tokenId","type":"uint256","internalType":"uint256"},{"name":"data","type":"bytes","internalType":"bytes"}],"outputs":[],"stateMutability":"nonpayable"},{"type":"function","name":"setApprovalForAll","inputs":[{"name":"operator","type":"address","internalType":"address"},{"name":"approved","type":"bool","internalType":"bool"}],"outputs":[],"stateMutability":"nonpayable"},{"type":"function","name":"supportsInterface","inputs":[{"name":"interfaceId","type":"bytes4","internalType":"bytes4"}],"outputs":[{"name":"","type":"bool","internalType":"bool"}],"stateMutability":"view"},{"type":"function","name":"symbol","inputs":[],"outputs":[{"name":"","type":"string","internalType":"string"}],"stateMutability":"view"},{"type":"function","name":"tokenURI","inputs":[{"name":"tokenId","type":"uint256","internalType":"uint256"}],"outputs":[{"name":"","type":"string","internalType":"string"}],"stateMutability":"view"},{"type":"function","name":"transferFrom","inputs":[{"name":"from","type":"address","internalType":"address"},{"name":"to","type":"address","internalType":"address"},{"name":"tokenId","type":"uint256","internalType":"uint256"}],"outputs":[],"stateMutability":"nonpayable"},{"type":"event","name":"Approval","inputs":[{"name":"owner","type":"address","indexed":true,"internalType":"address"},{"name":"approved","type":"address","indexed":true,"internalType":"address"},{"name":"tokenId","type":"uint256","indexed":true,"internalType":"uint256"}],"anonymous":false},{"type":"event","name":"ApprovalForAll","inputs":[{"name":"owner","type":"address","indexed":true,"internalType":"address"},{"name":"operator","type":"address","indexed":true,"internalType":"address"},{"name":"approved","type":"bool","indexed":false,"internalType":"bool"}],"anonymous":false},{"type":"event","name":"Transfer","inputs":[{"name":"from","type":"address","indexed":true,"internalType":"address"},{"name":"to","type":"address","indexed":true,"internalType":"address"},{"name":"tokenId","type":"uint256","indexed":true,"internalType":"uint256"}],"anonymous":false},{"type":"error","name":"ERC721IncorrectOwner","inputs":[{"name":"sender","type":"address","internalType":"address"},{"name":"tokenId","type":"uint256","internalType":"uint256"},{"name":"owner","type":"address","internalType":"address"}]},{"type":"error","name":"ERC721InsufficientApproval","inputs":[{"name":"operator","type":"address","internalType":"address"},{"name":"tokenId","type":"uint256","internalType":"uint256"}]},{"type":"error","name":"ERC721InvalidApprover","inputs":[{"name":"approver","type":"address","internalType":"address"}]},{"type":"error","name":"ERC721InvalidOperator","inputs":[{"name":"operator","type":"address","internalType":"address"}]},{"type":"error","name":"ERC721InvalidOwner","inputs":[{"name":"owner","type":"address","internalType":"address"}]},{"type":"error","name":"ERC721InvalidReceiver","inputs":[{"name":"receiver","type":"address","internalType":"address"}]},{"type":"error","name":"ERC721InvalidSender","inputs":[{"name":"sender","type":"address","internalType":"address"}]},{"type":"error","name":"ERC721NonexistentToken","inputs":[{"name":"tokenId","type":"uint256","internalType":"uint256"}]}],"bytecode":{"object":"0x608060405234801561000f575f5ffd5b506040518060400160405280600781526020017f4d6f6e64616c61000000000000000000000000000000000000000000000000008152506040518060400160405280600381526020017f5356470000000000000000000000000000000000000000000000000000000000815250815f908161008a91906102df565b50806001908161009a91906102df565b5050506103ae565b5f81519050919050565b7f4e487b71000000000000000000000000000000000000000000000000000000005f52604160045260245ffd5b7f4e487b71000000000000000000000000000000000000000000000000000000005f52602260045260245ffd5b5f600282049050600182168061011d57607f821691505b6020821081036101305761012f6100d9565b5b50919050565b5f819050815f5260205f209050919050565b5f6020601f8301049050919050565b5f82821b905092915050565b5f600883026101927fffffffffffffffffffffffffffffffffffffffffffffffffffffffffffffffff82610157565b61019c8683610157565b95508019841693508086168417925050509392505050565b5f819050919050565b5f819050919050565b5f6101e06101db6101d6846101b4565b6101bd565b6101b4565b9050919050565b5f819050919050565b6101f9836101c6565b61020d610205826101e7565b848454610163565b825550505050565b5f5f905090565b610224610215565b61022f8184846101f0565b505050565b5b81811015610252576102475f8261021c565b600181019050610235565b5050565b601f8211156102975761026881610136565b61027184610148565b81016020851015610280578190505b61029461028c85610148565b830182610234565b50505b505050565b5f82821c905092915050565b5f6102b75f198460080261029c565b1980831691505092915050565b5f6102cf83836102a8565b9150826002028217905092915050565b6102e8826100a2565b67ffffffffffffffff811115610301576103006100ac565b5b61030b8254610106565b610316828285610256565b5f60209050601f831160018114610347575f8415610335578287015190505b61033f85826102c4565b8655506103a6565b601f19841661035586610136565b5f5b8281101561037c57848901518255600182019150602085019450602081019050610357565b868310156103995784890151610395601f8916826102a8565b8355505b6001600288020188555050505b505050505050565b61248f806103bb5f395ff3fe6080604052600436106100e7575f3560e01c806370a0823111610089578063b88d4fde11610058578063b88d4fde146102f9578063c87b56dd14610321578063d204c45e1461035d578063e985e9c514610379576100e7565b806370a08231146102415780638d859f3e1461027d57806395d89b41146102a7578063a22cb465146102d1576100e7565b8063095ea7b3116100c5578063095ea7b31461018d57806323b872dd146101b557806342842e0e146101dd5780636352211e14610205576100e7565b806301ffc9a7146100eb57806306fdde0314610127578063081812fc14610151575b5f5ffd5b3480156100f6575f5ffd5b50610111600480360381019061010c9190611729565b6103b5565b60405161011e919061176e565b60405180910390f35b348015610132575f5ffd5b5061013b610496565b60405161014891906117f7565b60405180910390f35b34801561015c575f5ffd5b506101776004803603810190610172919061184a565b610525565b60405161018491906118b4565b60405180910390f35b348015610198575f5ffd5b506101b360048036038101906101ae91906118f7565b610540565b005b3480156101c0575f5ffd5b506101db60048036038101906101d69190611935565b610556565b005b3480156101e8575f5ffd5b5061020360048036038101906101fe9190611935565b610655565b005b348015610210575f5ffd5b5061022b6004803603810190610226919061184a565b610674565b60405161023891906118b4565b60405180910390f35b34801561024c575f5ffd5b5061026760048036038101906102629190611985565b610685565b60405161027491906119bf565b60405180910390f35b348015610288575f5ffd5b5061029161073b565b60405161029e91906119bf565b60405180910390f35b3480156102b2575f5ffd5b506102bb610746565b6040516102c891906117f7565b60405180910390f35b3480156102dc575f5ffd5b506102f760048036038101906102f29190611a02565b6107d6565b005b348015610304575f5ffd5b5061031f600480360381019061031a9190611b6c565b6107ec565b005b34801561032c575f5ffd5b506103476004803603810190610342919061184a565b610811565b60405161035491906117f7565b60405180910390f35b61037760048036038101906103729190611c8a565b610938565b005b348015610384575f5ffd5b5061039f600480360381019061039a9190611ce4565b6109c9565b6040516103ac919061176e565b60405180910390f35b5f7f80ac58cd000000000000000000000000000000000000000000000000000000007bffffffffffffffffffffffffffffffffffffffffffffffffffffffff1916827bffffffffffffffffffffffffffffffffffffffffffffffffffffffff1916148061047f57507f5b5e139f000000000000000000000000000000000000000000000000000000007bffffffffffffffffffffffffffffffffffffffffffffffffffffffff1916827bffffffffffffffffffffffffffffffffffffffffffffffffffffffff1916145b8061048f575061048e82610a57565b5b9050919050565b60605f80546104a490611d4f565b80601f01602080910402602001604051908101604052809291908181526020018280546104d090611d4f565b801561051b5780601f106104f25761010080835404028352916020019161051b565b820191905f5260205f20905b8154815290600101906020018083116104fe57829003601f168201915b5050505050905090565b5f61052f82610ac0565b5061053982610b46565b9050919050565b610552828261054d610b7f565b610b86565b5050565b5f73ffffffffffffffffffffffffffffffffffffffff168273ffffffffffffffffffffffffffffffffffffffff16036105c6575f6040517f64a0ae920000000000000000000000000000000000000000000000000000000081526004016105bd91906118b4565b60405180910390fd5b5f6105d983836105d4610b7f565b610b98565b90508373ffffffffffffffffffffffffffffffffffffffff168173ffffffffffffffffffffffffffffffffffffffff161461064f578382826040517f64283d7b00000000000000000000000000000000000000000000000000000000815260040161064693929190611d7f565b60405180910390fd5b50505050565b61066f83838360405180602001604052805f8152506107ec565b505050565b5f61067e82610ac0565b9050919050565b5f5f73ffffffffffffffffffffffffffffffffffffffff168273ffffffffffffffffffffffffffffffffffffffff16036106f6575f6040517f89c62b640000000000000000000000000000000000000000000000000000000081526004016106ed91906118b4565b60405180910390fd5b60035f8373ffffffffffffffffffffffffffffffffffffffff1673ffffffffffffffffffffffffffffffffffffffff1681526020019081526020015f20549050919050565b66038d7ea4c6800081565b60606001805461075590611d4f565b80601f016020809104026020016040519081016040528092919081815260200182805461078190611d4f565b80156107cc5780601f106107a3576101008083540402835291602001916107cc565b820191905f5260205f20905b8154815290600101906020018083116107af57829003601f168201915b5050505050905090565b6107e86107e1610b7f565b8383610da3565b5050565b6107f7848484610556565b61080b610802610b7f565b85858585610f0c565b50505050565b60605f60075f8481526020019081526020015f20805461083090611d4f565b80601f016020809104026020016040519081016040528092919081815260200182805461085c90611d4f565b80156108a75780601f1061087e576101008083540402835291602001916108a7565b820191905f5260205f20905b81548152906001019060200180831161088a57829003601f168201915b505050505090505f6108b8826110b8565b6040516020016108c89190611e38565b60405160208183030381529060405290505f6108e3856110cc565b826040516020016108f5929190611f5d565b604051602081830303815290604052905061090f816110b8565b60405160200161091f9190611feb565b6040516020818303038152906040529350505050919050565b66038d7ea4c68000341015610982576040517f08c379a000000000000000000000000000000000000000000000000000000000815260040161097990612056565b60405180910390fd5b5f60065f815480929190610995906120a1565b9190505590508160075f8381526020019081526020015f2090816109b99190612288565b506109c4838261111b565b505050565b5f60055f8473ffffffffffffffffffffffffffffffffffffffff1673ffffffffffffffffffffffffffffffffffffffff1681526020019081526020015f205f8373ffffffffffffffffffffffffffffffffffffffff1673ffffffffffffffffffffffffffffffffffffffff1681526020019081526020015f205f9054906101000a900460ff16905092915050565b5f7f01ffc9a7000000000000000000000000000000000000000000000000000000007bffffffffffffffffffffffffffffffffffffffffffffffffffffffff1916827bffffffffffffffffffffffffffffffffffffffffffffffffffffffff1916149050919050565b5f5f610acb83611138565b90505f73ffffffffffffffffffffffffffffffffffffffff168173ffffffffffffffffffffffffffffffffffffffff1603610b3d57826040517f7e273289000000000000000000000000000000000000000000000000000000008152600401610b3491906119bf565b60405180910390fd5b80915050919050565b5f60045f8381526020019081526020015f205f9054906101000a900473ffffffffffffffffffffffffffffffffffffffff169050919050565b5f33905090565b610b938383836001611171565b505050565b5f5f610ba384611138565b90505f73ffffffffffffffffffffffffffffffffffffffff168373ffffffffffffffffffffffffffffffffffffffff1614610be457610be3818486611330565b5b5f73ffffffffffffffffffffffffffffffffffffffff168173ffffffffffffffffffffffffffffffffffffffff1614610c6f57610c235f855f5f611171565b600160035f8373ffffffffffffffffffffffffffffffffffffffff1673ffffffffffffffffffffffffffffffffffffffff1681526020019081526020015f205f82825403925050819055505b5f73ffffffffffffffffffffffffffffffffffffffff168573ffffffffffffffffffffffffffffffffffffffff1614610cee57600160035f8773ffffffffffffffffffffffffffffffffffffffff1673ffffffffffffffffffffffffffffffffffffffff1681526020019081526020015f205f82825401925050819055505b8460025f8681526020019081526020015f205f6101000a81548173ffffffffffffffffffffffffffffffffffffffff021916908373ffffffffffffffffffffffffffffffffffffffff160217905550838573ffffffffffffffffffffffffffffffffffffffff168273ffffffffffffffffffffffffffffffffffffffff167fddf252ad1be2c89b69c2b068fc378daa952ba7f163c4a11628f55a4df523b3ef60405160405180910390a4809150509392505050565b5f73ffffffffffffffffffffffffffffffffffffffff168273ffffffffffffffffffffffffffffffffffffffff1603610e1357816040517f5b08ba18000000000000000000000000000000000000000000000000000000008152600401610e0a91906118b4565b60405180910390fd5b8060055f8573ffffffffffffffffffffffffffffffffffffffff1673ffffffffffffffffffffffffffffffffffffffff1681526020019081526020015f205f8473ffffffffffffffffffffffffffffffffffffffff1673ffffffffffffffffffffffffffffffffffffffff1681526020019081526020015f205f6101000a81548160ff0219169083151502179055508173ffffffffffffffffffffffffffffffffffffffff168373ffffffffffffffffffffffffffffffffffffffff167f17307eab39ab6107e8899845ad3d59bd9653f200f220920489ca2b5937696c3183604051610eff919061176e565b60405180910390a3505050565b5f8373ffffffffffffffffffffffffffffffffffffffff163b11156110b1578273ffffffffffffffffffffffffffffffffffffffff1663150b7a02868685856040518563ffffffff1660e01b8152600401610f6a94939291906123a9565b6020604051808303815f875af1925050508015610fa557506040513d601f19601f82011682018060405250810190610fa29190612407565b60015b611026573d805f8114610fd3576040519150601f19603f3d011682016040523d82523d5f602084013e610fd8565b606091505b505f81510361101e57836040517f64a0ae9200000000000000000000000000000000000000000000000000000000815260040161101591906118b4565b60405180910390fd5b805181602001fd5b63150b7a0260e01b7bffffffffffffffffffffffffffffffffffffffffffffffffffffffff1916817bffffffffffffffffffffffffffffffffffffffffffffffffffffffff1916146110af57836040517f64a0ae920000000000000000000000000000000000000000000000000000000081526004016110a691906118b4565b60405180910390fd5b505b5050505050565b60606110c5825f5f6113f3565b9050919050565b60606080604051019050602081016040525f8152805f19835b600115611106578184019350600a81066030018453600a81049050806110e5575b50828203602084039350808452505050919050565b611134828260405180602001604052805f8152506114ed565b5050565b5f60025f8381526020019081526020015f205f9054906101000a900473ffffffffffffffffffffffffffffffffffffffff169050919050565b80806111a957505f73ffffffffffffffffffffffffffffffffffffffff168273ffffffffffffffffffffffffffffffffffffffff1614155b156112db575f6111b884610ac0565b90505f73ffffffffffffffffffffffffffffffffffffffff168373ffffffffffffffffffffffffffffffffffffffff161415801561122257508273ffffffffffffffffffffffffffffffffffffffff168173ffffffffffffffffffffffffffffffffffffffff1614155b8015611235575061123381846109c9565b155b1561127757826040517fa9fbf51f00000000000000000000000000000000000000000000000000000000815260040161126e91906118b4565b60405180910390fd5b81156112d957838573ffffffffffffffffffffffffffffffffffffffff168273ffffffffffffffffffffffffffffffffffffffff167f8c5be1e5ebec7d5bd14f71427d1e84f3dd0314c0f7b2291e5b200ac8c7c3b92560405160405180910390a45b505b8360045f8581526020019081526020015f205f6101000a81548173ffffffffffffffffffffffffffffffffffffffff021916908373ffffffffffffffffffffffffffffffffffffffff16021790555050505050565b61133b838383611510565b6113ee575f73ffffffffffffffffffffffffffffffffffffffff168373ffffffffffffffffffffffffffffffffffffffff16036113af57806040517f7e2732890000000000000000000000000000000000000000000000000000000081526004016113a691906119bf565b60405180910390fd5b81816040517f177e802f0000000000000000000000000000000000000000000000000000000081526004016113e5929190612432565b60405180910390fd5b505050565b6060835180156114e5576003600282010460021b60405192507f4142434445464748494a4b4c4d4e4f505152535455565758595a616263646566601f526106708515027f6768696a6b6c6d6e6f707172737475767778797a303132333435363738392d5f18603f52602083018181015b6001156114b7576003880197508751603f8160121c16515f53603f81600c1c1651600153603f8160061c1651600253603f8116516003535f5183526004830192508183106114b157506114b7565b50611463565b6020810160405260038406600204613d3d60f01b81840352808715150290505f818403528084038652505050505b509392505050565b6114f783836115d0565b61150b611502610b7f565b5f858585610f0c565b505050565b5f5f73ffffffffffffffffffffffffffffffffffffffff168373ffffffffffffffffffffffffffffffffffffffff16141580156115c757508273ffffffffffffffffffffffffffffffffffffffff168473ffffffffffffffffffffffffffffffffffffffff161480611588575061158784846109c9565b5b806115c657508273ffffffffffffffffffffffffffffffffffffffff166115ae83610b46565b73ffffffffffffffffffffffffffffffffffffffff16145b5b90509392505050565b5f73ffffffffffffffffffffffffffffffffffffffff168273ffffffffffffffffffffffffffffffffffffffff1603611640575f6040517f64a0ae9200000000000000000000000000000000000000000000000000000000815260040161163791906118b4565b60405180910390fd5b5f61164c83835f610b98565b90505f73ffffffffffffffffffffffffffffffffffffffff168173ffffffffffffffffffffffffffffffffffffffff16146116be575f6040517f73c6ac6e0000000000000000000000000000000000000000000000000000000081526004016116b591906118b4565b60405180910390fd5b505050565b5f604051905090565b5f5ffd5b5f5ffd5b5f7fffffffff0000000000000000000000000000000000000000000000000000000082169050919050565b611708816116d4565b8114611712575f5ffd5b50565b5f81359050611723816116ff565b92915050565b5f6020828403121561173e5761173d6116cc565b5b5f61174b84828501611715565b91505092915050565b5f8115159050919050565b61176881611754565b82525050565b5f6020820190506117815f83018461175f565b92915050565b5f81519050919050565b5f82825260208201905092915050565b8281835e5f83830152505050565b5f601f19601f8301169050919050565b5f6117c982611787565b6117d38185611791565b93506117e38185602086016117a1565b6117ec816117af565b840191505092915050565b5f6020820190508181035f83015261180f81846117bf565b905092915050565b5f819050919050565b61182981611817565b8114611833575f5ffd5b50565b5f8135905061184481611820565b92915050565b5f6020828403121561185f5761185e6116cc565b5b5f61186c84828501611836565b91505092915050565b5f73ffffffffffffffffffffffffffffffffffffffff82169050919050565b5f61189e82611875565b9050919050565b6118ae81611894565b82525050565b5f6020820190506118c75f8301846118a5565b92915050565b6118d681611894565b81146118e0575f5ffd5b50565b5f813590506118f1816118cd565b92915050565b5f5f6040838503121561190d5761190c6116cc565b5b5f61191a858286016118e3565b925050602061192b85828601611836565b9150509250929050565b5f5f5f6060848603121561194c5761194b6116cc565b5b5f611959868287016118e3565b935050602061196a868287016118e3565b925050604061197b86828701611836565b9150509250925092565b5f6020828403121561199a576119996116cc565b5b5f6119a7848285016118e3565b91505092915050565b6119b981611817565b82525050565b5f6020820190506119d25f8301846119b0565b92915050565b6119e181611754565b81146119eb575f5ffd5b50565b5f813590506119fc816119d8565b92915050565b5f5f60408385031215611a1857611a176116cc565b5b5f611a25858286016118e3565b9250506020611a36858286016119ee565b9150509250929050565b5f5ffd5b5f5ffd5b7f4e487b71000000000000000000000000000000000000000000000000000000005f52604160045260245ffd5b611a7e826117af565b810181811067ffffffffffffffff82111715611a9d57611a9c611a48565b5b80604052505050565b5f611aaf6116c3565b9050611abb8282611a75565b919050565b5f67ffffffffffffffff821115611ada57611ad9611a48565b5b611ae3826117af565b9050602081019050919050565b828183375f83830152505050565b5f611b10611b0b84611ac0565b611aa6565b905082815260208101848484011115611b2c57611b2b611a44565b5b611b37848285611af0565b509392505050565b5f82601f830112611b5357611b52611a40565b5b8135611b63848260208601611afe565b91505092915050565b5f5f5f5f60808587031215611b8457611b836116cc565b5b5f611b91878288016118e3565b9450506020611ba2878288016118e3565b9350506040611bb387828801611836565b925050606085013567ffffffffffffffff811115611bd457611bd36116d0565b5b611be087828801611b3f565b91505092959194509250565b5f67ffffffffffffffff821115611c0657611c05611a48565b5b611c0f826117af565b9050602081019050919050565b5f611c2e611c2984611bec565b611aa6565b905082815260208101848484011115611c4a57611c49611a44565b5b611c55848285611af0565b509392505050565b5f82601f830112611c7157611c70611a40565b5b8135611c81848260208601611c1c565b91505092915050565b5f5f60408385031215611ca057611c9f6116cc565b5b5f611cad858286016118e3565b925050602083013567ffffffffffffffff811115611cce57611ccd6116d0565b5b611cda85828601611c5d565b9150509250929050565b5f5f60408385031215611cfa57611cf96116cc565b5b5f611d07858286016118e3565b9250506020611d18858286016118e3565b9150509250929050565b7f4e487b71000000000000000000000000000000000000000000000000000000005f52602260045260245ffd5b5f6002820490506001821680611d6657607f821691505b602082108103611d7957611d78611d22565b5b50919050565b5f606082019050611d925f8301866118a5565b611d9f60208301856119b0565b611dac60408301846118a5565b949350505050565b5f81905092915050565b7f646174613a696d6167652f7376672b786d6c3b6261736536342c0000000000005f82015250565b5f611df2601a83611db4565b9150611dfd82611dbe565b601a82019050919050565b5f611e1282611787565b611e1c8185611db4565b9350611e2c8185602086016117a1565b80840191505092915050565b5f611e4282611de6565b9150611e4e8284611e08565b915081905092915050565b7f7b226e616d65223a224d6f6e64616c61202300000000000000000000000000005f82015250565b5f611e8d601283611db4565b9150611e9882611e59565b601282019050919050565b7f222c226465736372697074696f6e223a224f6e2d636861696e20535647204d615f8201527f6e64616c612064657369676e2e222c22696d616765223a220000000000000000602082015250565b5f611efd603883611db4565b9150611f0882611ea3565b603882019050919050565b7f227d0000000000000000000000000000000000000000000000000000000000005f82015250565b5f611f47600283611db4565b9150611f5282611f13565b600282019050919050565b5f611f6782611e81565b9150611f738285611e08565b9150611f7e82611ef1565b9150611f8a8284611e08565b9150611f9582611f3b565b91508190509392505050565b7f646174613a6170706c69636174696f6e2f6a736f6e3b6261736536342c0000005f82015250565b5f611fd5601d83611db4565b9150611fe082611fa1565b601d82019050919050565b5f611ff582611fc9565b91506120018284611e08565b915081905092915050565b7f496e73756666696369656e742066756e647300000000000000000000000000005f82015250565b5f612040601283611791565b915061204b8261200c565b602082019050919050565b5f6020820190508181035f83015261206d81612034565b9050919050565b7f4e487b71000000000000000000000000000000000000000000000000000000005f52601160045260245ffd5b5f6120ab82611817565b91507fffffffffffffffffffffffffffffffffffffffffffffffffffffffffffffffff82036120dd576120dc612074565b5b600182019050919050565b5f819050815f5260205f209050919050565b5f6020601f8301049050919050565b5f82821b905092915050565b5f600883026121447fffffffffffffffffffffffffffffffffffffffffffffffffffffffffffffffff82612109565b61214e8683612109565b95508019841693508086168417925050509392505050565b5f819050919050565b5f61218961218461217f84611817565b612166565b611817565b9050919050565b5f819050919050565b6121a28361216f565b6121b66121ae82612190565b848454612115565b825550505050565b5f5f905090565b6121cd6121be565b6121d8818484612199565b505050565b5b818110156121fb576121f05f826121c5565b6001810190506121de565b5050565b601f82111561224057612211816120e8565b61221a846120fa565b81016020851015612229578190505b61223d612235856120fa565b8301826121dd565b50505b505050565b5f82821c905092915050565b5f6122605f1984600802612245565b1980831691505092915050565b5f6122788383612251565b9150826002028217905092915050565b61229182611787565b67ffffffffffffffff8111156122aa576122a9611a48565b5b6122b48254611d4f565b6122bf8282856121ff565b5f60209050601f8311600181146122f0575f84156122de578287015190505b6122e8858261226d565b86555061234f565b601f1984166122fe866120e8565b5f5b8281101561232557848901518255600182019150602085019450602081019050612300565b86831015612342578489015161233e601f891682612251565b8355505b6001600288020188555050505b505050505050565b5f81519050919050565b5f82825260208201905092915050565b5f61237b82612357565b6123858185612361565b93506123958185602086016117a1565b61239e816117af565b840191505092915050565b5f6080820190506123bc5f8301876118a5565b6123c960208301866118a5565b6123d660408301856119b0565b81810360608301526123e88184612371565b905095945050505050565b5f81519050612401816116ff565b92915050565b5f6020828403121561241c5761241b6116cc565b5b5f612429848285016123f3565b91505092915050565b5f6040820190506124455f8301856118a5565b61245260208301846119b0565b939250505056fea26469706673582212202d07de42994baa21282c5e1846707e547ded318baab08557634bdfcaaa9c801a64736f6c634300081e0033","linkReferences":{}},"methodIdentifiers":{"PRICE()":"8d859f3e","approve(address,uint256)":"095ea7b3","balanceOf(address)":"70a08231","getApproved(uint256)":"081812fc","isApprovedForAll(address,address)":"e985e9c5","name()":"06fdde03","ownerOf(uint256)":"6352211e","safeMint(address,string)":"d204c45e","safeTransferFrom(address,address,uint256)":"42842e0e","safeTransferFrom(address,address,uint256,bytes)":"b88d4fde","setApprovalForAll(address,bool)":"a22cb465","supportsInterface(bytes4)":"01ffc9a7","symbol()":"95d89b41","tokenURI(uint256)":"c87b56dd","transferFrom(address,address,uint256)":"23b872dd"},"id":30}